:100000009300000013810000938100001382000020
:100010009382000013830000938300001384000088
:100020009384000013850000938500001386000070
:100030009386000013870000938700001388000058
:10004000938800001389000093890000138A000040
:10005000938A0000138B0000938B0000138C000028
:10006000938C0000138D0000938D0000138E000010
:10007000938E0000138F0000938F00001701020081
:10008000130141F8170D0100130D8DFA970D0100B2
:10009000938D0D0A6358BD0123200D00130D4D00F3
:1000A000E3DCADFF1305000093050000EF008000C6
:1000B0006F000000130101FF2326810013040101DA
:1000C0001300000013000000138507000324C10083
:1000D0001301010167800000130101FE232E81003E
:1000E000130401022326A4FE2324B4FE2322C4FE0B
:1000F000B70701001387C7028327C4FE9397370011
:10010000B307F700032784FE23A0E700B707010029
:100110001387C7028327C4FE93973700B307F700FE
:10012000032744FE23A2E700130000000324C101BB
:100130001301010267800000130101FD2326110253
:100140002324810213040103232EA4FC232CB4FCDA
:100150000327C4FDB7070080B377F7002326F4FE1A
:10016000B70701001387C7028327C4FE93973700A0
:10017000B307F70083A7070093860700B7070100BE
:100180001387C7028327C4FE93973700B307F7008E
:1001900083A7470013850700E780060013000000CF
:1001A0008320C10203248102130101036780000040
:1001B000130101FE232E1100232C810013040102E0
:1001C0002326A4FE2324B4FE93051000B7070100E4
:1001D00013850700EF00800193051000B7070100A9
:1001E0001385C701EF0080006F000000130101FEBE
:1001F000232E1100232C8100130401022326A4FEC8
:100200002324B4FE6F0040098327C4FE03C7070000
:10021000930750026316F7068327C4FE93871700DF
:100220002326F4FE8327C4FE83C707001307400676
:100230006388E70013078006638CE7006F004002C5
:10024000832784FE13850700EF0040076F004002FC
:10025000832784FE13850700EF00400D6F004001E7
:10026000832784FE13850700EF00400C1300000075
:100270008327C4FE938717002326F4FE6F00C00176
:100280008327C4FE138717002326E4FE83C70700D5
:1002900013850700EF0080138327C4FE83C7070080
:1002A000E39407F613000000130000008320C1014F
:1002B000032481011301010267800000130101FE84
:1002C000232E1100232C8100130401022326A4FEF7
:1002D0000327C4FE9307900063F4E7020327C4FEDC
:1002E0009307A000B357F70213850700EFF01FFD37
:1002F0000327C4FE9307A000B377F7022326F4FE7A
:100300008327C4FE93F7F70F9387070393F7F70F3D
:1003100013850700EF00800B130000008320C1014C
:10032000032481011301010267800000130101FD14
:10033000232611022324810213040103232EA4FC8B
:10034000930780002326F4FE13050003EF00000846
:1003500013058007EF0080076F00C0048327C4FDEA
:1003600093D7C701A305F4FE0347B4FE930790009B
:1003700063EAE7008347B4FE9387070393F7F70F19
:100380006F0000018347B4FE9387770593F7F70F5B
:1003900013850700EF0080038327C4FD9397470070
:1003A000232EF4FC8327C4FE1387F7FF2326E4FEE5
:1003B000E39607FA13000000130000008320C10237
:1003C000032481021301010367800000130101FE71
:1003D000232E81001304010293070500A307F4FEF6
:1003E000B707003C0347F4FE23A0E700130000001A
:0C03F0000324C10113010102678000001A
:101000006F0000086F00C0076F0080076F00400787
:101010006F0000076F00C0066F0080066F0040067B
:101020006F0000066F00C0056F0080056F0040056F
:101030006F0000056F00C0046F0080046F00400463
:101040006F0000046F00C0036F0080036F00400357
:101050006F0000036F00C0026F0080026F0040024B
:101060006F0000026F00C0016F0080016F0040013F
:101070006F0000016F00C0006F0080006F00400033
:10108000130101F82322110023242100232631001B
:1010900023284100232A5100232C6100232E7100B4
:1010A00023208102232291022324A1022326B102BC
:1010B0002328C102232AD102232CE102232EF1028C
:1010C0002320010523221105232421052326310590
:1010D00023284105232A5105232C6105232E710560
:1010E00023208107232291072324A1072326B10768
:1010F0002328C107232AD107232CE107232EF10738
:1011000073252034F32510341356F50163060600C9
:10111000EFF08F826F008000EFF08F898320410015
:10112000032181008321C1000322010183224101A7
:10113000032381018323C10103240102832441028B
:10114000032581028325C10203260103832641036F
:10115000032781038327C103032801048328410453
:10116000032981048329C104032A0105832A410537
:10117000032B8105832BC105032C0106832C41061B
:10118000032D8106832DC106032E0107832E4107FF
:10119000032F8107832FC10713010108730020303B
:020000021000EC
:10000000656E74657220657863657074696F6E20C3
:1000100068616E646C652121210A00006D63617561
:0A00200073652069732025680A004B
:02002A000000D4
:00000001FF
